:400000000040002011000000A5030000A503000010B500F0B9FEC046000000000000000000000000000000000000000000000000000000000000000000000000000000008D
:400040000000000000000000000000000000000000000000000000000000000000000000000000000000000000000000000000000000000000000000000000000000000080
:400080000000000000000000000000000000000000000000000000000000000000000000000000000000000000000000000000000000000000000000000000000000000040
:4000C0000000000000000000000000000000000000000000000000000000000000000000000000000000000000000000000000000000000000000000000000000000000000
:4001000010B5064C2378002B07D1054B002B02D0044800E000BF0123237010BD48100020000000006C2D0100084B10B5002B03D00749084800E000BF07480368002B00D131
:4001400010BD064B002BFBD09847F9E7000000004C1000206C2D0100A00B0020000000007047C04610B512F0EDFD10BDF0B54746012380B4824C82B02278050013430E0003
:4001800023704C2814D87F4A8300D3589F46736831001B789B0700D4EDE00530FF30E3689847012223789343237023781A4216D0112223781A4207D02378103A934323702D
:4001C0003100E3682800984702B004BC9046F0BD8B89092B00D1A5E02378DB07E8D430680CF0FAFFE4E7072301AF98463B70002338007B7003F0A6F843463B70012338008E
:400200007B7003F09FF8604B9A79002A51D11A78002A0ED15A78002A0BD19A78002A08D1DA78002A05D11A79002A02D15B79002B3FD0554800F0DAFF5EE00023A370B7E74F
:4002400023789B06B4D4514B1A78102AB0D10B3ADA70ADE76378022BAAD02278D207A7D5042221780A4278D0032363702378934323709DE7022363709AE70423637097E778
:400280000B78A37094E70B78002B00D090E74B78002B09D1AE2212019446638123813C4B63446360231D4B6001222378934323707EE7384BF8221978FC2389011B01194077
:4002C000354B520218780003030013401943334B2E481A783F231340FE221943304B12041B7808305B0413400B4303701A0A1B0C4270837000F07AFF03200BF089FC3F2301
:400300003B70002338007B700BF0A0FC042363704EE74988162903D830880CF0EFFE47E71721F9E7081D0A00373300210EF05CF9002800D12BE7012223789343237023785A
:400340001A4200D034E7122301A98B70B389C87030680B800CF0C8FE2AE708212078014204D0237862708B43237021E7032B00D01EE762701CE70620E368FF30984710E7F6
:4003800064100020702D010000F2FF0FA40B0020C00000207DF1FF0F7BF1FF0F7CF1FF0F78F1FF0F10B500F09DFE03680C2B00D0FEE7FEE770B526280ED0282802D001284C
:4003C00000D070BD424C6378042B6CD0BF23414A11680B401360F4E73D4B5C78042CF0D1BF233C4901250A681340402213430B60DF23394A11680B4010211360374A136802
:400400000B401360364B374A1D60374B1D60374B1A6400F0EAFCC023354A11680B43136000F0E7FC334B1D6000F0DFFC324A8021136809069B009B081360304A13689B008D
:400440009B0813602E4A13689B009B0813602D4A13689B009B0813602B4A13689B009B0813602A4A13689B009B081360284A13689B009B081360274A13680B431360264B22
:40048000264A1B8826499BB21360264B1A681443FF221C600B6893430E3A13430B6030BF00F0A7FC8DE7227813408FD1A0221E480384436910301A805A800BF0C7FC002889
:4004C00000D083E7042322781343DBB223707DE76410002000030440000004401000044080E200E06101000080E100E00000002000E400E000E100E0080004400801044091
:40050000080204400803044008040440080504400806044000000B4050F1FF0F0C000B402C000B4010ED00E0A40B00202B2070477047C0462B2070472B2070472B20704752
:400540002B2070472B2070472B2070472B2070472B2070472B2070472B2070470220FF307047C04610B58024084B64011C60084A084B1A6700F039FCC021074A13688B43FC
:40058000136000F036FC054B1C6010BD80E100E065010000000000200CE400E000E100E08022084B520110B51A60074A074B1A6700F01BFCC021064A13688B43136000F026
:4005C00018FC10BD80E100E065010000000000200CE400E08022024B52011A607047C04680E100E08022024B52011A607047C04600E100E070B5802506002D02A8420FD9BE
:400600000400FA20400500F0E7FB084B9C466444AC42F6D8064BF318DB0BDB036644F61AFA208001704300F0D7FB70BD0080FFFFFF7FFFFF10B5000100F0CEFB10BDC04689
:40064000314B324A1978324B09021B781943314B1B7812781B0213432F4A93424ED0D4221201934246D02D4A13602D4B2D4A19602D4B1B7812781B0213432C4A134200D118
:400680002B4B2C4A13602C4B2C4A1B7812781B0213432B4A93420DD02A4A93420AD0052B08D0294A1360294B1A68294B1B68AA2B09D07047274B244A1360244B1A68244B21
:4006C0001B68AA2BF5D11F2AF3D91B4B1B780E2BEFD1214B214A1B7812781B021343204A1360204B204A1B7812781B0213431F4A1360DEE70429B6D11D4BB4E70729B2D121
:400700001B4B0339AFE7C046D9F0FF0FDEF0FF0FD8F0FF0FDFF0FF0F580B00006C002E4074002E40DAF0FF0FDBF0FF0FFFDFFFFF0220000078002E40DDF0FF0FDCF0FF0FAC
:400740000F0F00000505000080002E40EC0F00F0E00F00F0050F00006DF2FF0F6CF2FF0F84002E406FF2FF0F6EF2FF0F94002E40580D0000016070470160704710B500F091
:4007800034FB0421034A13688B43136030BF00F030FB10BD10ED00E0F0B54D4644465F4656460121F0B4764A87B0136800248B431360744800237449744D04E00134C25000
:4007C0000433302C08D00A00032CF7D85A590134C2500433302CF6D172B600226C4B00211A6080226B48D200994600F0BFFC80220021D200684800F0B9FCEE22674B120621
:400800001A609923664A1B041360664A012713600623654A654D1178654E0B431370654B654A1C60654B66481A608022654B52001A60654BC03A1A60C022644B52031A6009
:40084000634B9A4612235246136002222B689046BB432B602B6893432B6033680E32A343134333603368093A9346934380223B4333602B68120613432B6000F0ADFA42460B
:400880002B682B6893435A462B603368934342461343336033681E32A343134333602B68FA243B432B6000F0A0FA4A4B4A491A6802AB0292494A01251268494E03921122B4
:4008C000049252461268E4000592464A00926A460193454B1A60454A11601B6800F089FA434A444B41461A608022434BD2051A60424A13680B4313604149424B1960002158
:40090000414B19604B461B6808318B4349460B603E4B19680F4380211F603D4B090213603C4A13680B431360102000F055FA33681D4202D1013C002CF6D1374800F04CFA38
:400940008022244B12061A6000238021234AC9051360294A11601E4A3049136003220A602F490A602F4A1360054A013311680B43136007B03CBC90469946A246AB46F0BD26
:400980000000104000000020A5030000000000006CF02E4000300F4000400F400000024000500F4030500F4000700F4000F02E4000FF2E40000004400020DB000800044082
:4009C000001BB7000C00044000030440080304403000104008010B401700008000010B400C002E40B6EA000008001040040010400600008004010B400C020B4078002E40AD
:400A00006A2D00007C002E4064F02E4060F02E400220000010002E40C05D00003000304030003140000E3F40F0B55F4656464D464446F0B491B062B6C04C142221000BA814
:400A400000F08BFB2422BE4FBB5C002B03D13B70BB700133BB540021BA4B08A8FB60018106AB1B31198059801739197108930023123105AA69444260137000F08FFC00285D
:400A800000D1CBE001BE0722AF4B1B681340022B00D0B9E001BEAC4B1A68C0231B021A4200D1A2E0A94B0226994607239846A64D00F098FB032000F08DFB00F096F982462A
:400AC00002F0DFFB0400B443E4B2042C66D0022824D000F08AF942462B689D4C934333432B6000F086F923685B005B08236000F07CF90421974A13688B43136030BF00F086
:400B000078F98022236812061343236000F06DF942462B6893432B6000F06BF9504600F068F902F0AEFB0228C2D1BB8E01339BB2BB86002BBCD04B4606229B696F219A70A8
:400B4000033A0E24DA701A71FB329A719A72002259715972103159744939D872785CDC7108341C721A735A739A73DA731A749A74DA741A755A759A75DA751A765A769A76A7
:400B8000DA761A775A779A77C8282CD00022BA864A461800D16902F027FB89E700F025F96D4A834613685B005B0813606B4B6C4A1B889BB21360674B1A6814431C602B681B
:400BC0000B9300F012F92A68664B13408022520313432B6000F00DF930BF0B9B58462B6000F007F99AE77A54D0E75F4A1368002B00DB57E75D4D2C68A40FA40728D01368CD
:400C00005B005B0813604DE700F0EFF80323584A11680B43136000F0ECF83CE70523AE2202900190009312010BAB5249524800F00BFB002800D025E720000123143013221C
:400C40000D217B700DF0B8FC002800D11BE719E700F0CBF8494901220B689B071BD5BC620021474B1B681B041B0C454C454D01292CD0002919D002291BD12A689342F6D009
:400C8000394A13685B005B081360FB6A002B20D100F0AFF806E70B685B0A1A420CD0BA62374B01211B681B0CDFE722681204120CE4E701BE0022E1E70B685B0C13401CD075
:400CC0000223BB622F4B02211B68CEE72268120CD4E70121294A13688B43136012683B6B5208114206D10324204923400A68A24313430B600023FB62CAE70324FA62BB62A9
:400D00002B6823403B630B685B081A4202D12B68A3432B600122194B19680A431A60022219680A42FCD0B96A0129B9D0002997D00229C7D001BE002397E7C046A42E010029
:400D400064100020B503000000010B40A40B002008010B4010ED00E000000B4052F1FF0F0C000B40FFFFC7FF04010B400C020B4064F02E40C00000206D01000010020B400E
:400D800000020B4004020B40F8B5104E002E18D000200F4DA9682C686A68002905D00023E758043380C29942FAD1E9680023002903D0D05004339942FBD1013E1035002EE2
:400DC000E8D100F095F9FFF72FFEC0460100000004300100000000000230800803D00138FDD1C046C046C0467047EFF3108072B6704780F310887047002243088B4274D36C
:400E000003098B425FD3030A8B4244D3030B8B4228D3030C8B420DD3FF22090212BA030C8B4202D31212090265D0030B8B4219D300E0090AC30B8B4201D3CB03C01A5241B3
:400E4000830B8B4201D38B03C01A5241430B8B4201D34B03C01A5241030B8B4201D30B03C01A5241C30A8B4201D3CB02C01A5241830A8B4201D38B02C01A5241430A8B428A
:400E800001D34B02C01A5241030A8B4201D30B02C01A5241CDD2C3098B4201D3CB01C01A524183098B4201D38B01C01A524143098B4201D34B01C01A524103098B4201D3BE
:400EC0000B01C01A5241C3088B4201D3CB00C01A524183088B4201D38B00C01A524143088B4201D34B00C01A5241411A00D20146524110467047FFE701B5002000F0F0F865
:400F000002BDC0460029F7D076E7704703460B437FD4002243088B4274D303098B425FD3030A8B4244D3030B8B4228D3030C8B420DD3FF22090212BA030C8B4202D3121222
:400F4000090265D0030B8B4219D300E0090AC30B8B4201D3CB03C01A5241830B8B4201D38B03C01A5241430B8B4201D34B03C01A5241030B8B4201D30B03C01A5241C30A02
:400F80008B4201D3CB02C01A5241830A8B4201D38B02C01A5241430A8B4201D34B02C01A5241030A8B4201D30B02C01A5241CDD2C3098B4201D3CB01C01A524183098B42C0
:400FC00001D38B01C01A524143098B4201D34B01C01A524103098B4201D30B01C01A5241C3088B4201D3CB00C01A524183088B4201D38B00C01A524143088B4201D34B0059
:40100000C01A5241411A00D201465241104670475DE0CA0F00D04942031000D34042534000229C4603098B422DD3030A8B4212D3FC22890112BA030A8B420CD389019211CD
:401040008B4208D3890192118B4204D389013AD0921100E08909C3098B4201D3CB01C01A524183098B4201D38B01C01A524143098B4201D34B01C01A524103098B4201D32F
:401080000B01C01A5241C3088B4201D3CB00C01A524183088B4201D38B00C01A5241D9D243088B4201D34B00C01A5241411A00D20146634652415B10104601D34042002BAE
:4010C00000D54942704763465B1000D3404201B5002000F005F802BD0029F8D016E770477047C046014B18687047C046441000200E4B70B500251E000D4CE41AA410A542DC
:4011000004D0AB00F35898470135F8E711F068FF084B00251E00084CE41AA410A54204D0AB00F35898470135F8E770BDEC2F0100EC2F0100EC2F0100F42F010030B500249A
:40114000A24208D0035D651C0C5DA34201D0181B02E02C00F4E7002030BD002310B59A4203D0CC5CC4540133F9E710BD03008218934202D019700133FAE77047134A108844
:40118000810703D08107890F401A001D11791030484381B25088820703D08207920F801A001D800040180A494030098980B2CA0701D0503080B2890706D504495422091F97
:4011C00009785143081880B270470000920C0020B010002010B501F067FF10BD10B501F079FF10BD10B500F05BFA10BD10B50749044609780220002907D1204601F0C2FF5D
:40120000002802D120460AF007FE10BD300E002070B504460120002C12D02368002B0FD0616800290CD0074D06222889208118462968FFF792FF6968606809780170002033
:4012400070BD0000B0100020FFB585B0002768460E9D07734F481C460078002802D0082009B0F0BD10990F9801900095029105A807C800F007F90028F2D16946264603AB5C
:4012800084460873002C19D0002115E08A00B75A082F09D990198078002805D0083FB7521878401C187005E0002914D00027B75290198770491CC9B2A942E7D36046002893
:4012C000CED10F98002809D0109901F09DFA002804D00120C4E701208446EFE701F0FAFE2D480021416081600599016021888180022D07D3A1798171A17AC171A189018135
:40130000218A418100211EE0481C19E082008B00A75AE65ABE46BE4211D26F463E80B4461E190296B678BE7001967646E6521719029EBB78B3706646A652019EBE70401C79
:40134000A842E3D3491CA942DED3134822460C3000906846037B0799069800F01BF90028B8D168460B4C007B60700B480C3001F0E1FE0028AED1084907480C3107F01CFEDA
:401380000028A7D107F036FE0028A3D10121217066E700008C0C0020A4100020F8B5054636480F460078002802D002242046F8BD002F60D000243249002D16D02A89D00721
:4013C0000DD02868002808D003881B3BE12B04D24088FB2801D81B2801D2012409E0900707D56868002804D1F7E70020088108604860002CDAD122482E8906811F481B21DC
:40140000801D01804180042101711C490020891C0870F00705D019480622801D2968FFF79CFE1749B00703D56A68144812788270124D0E46AD1D281F0D60486001F0C8FE58
:40144000284601F0B7FE30890EF0DEF930890DF0C7FB28880DF0CAFB30890EF03FFB03461033FFF78BFE1F21C018890140183880A91F88809AE7012498E700008C0C002085
:40148000B0100020FFB58446384F1C460020BB883F78054602460646002F11D100290ED0029999420BD36146002908D0002C06D00A99002906D02E4B0B99994202D2012047
:4014C00004B0F0BD002144E0AB001F19BF78002F3BD0E35A002B38D07B43591889B22B0000F04AF8050410161C253100A7782388BC46FF27233BEB37BB4222D26346032BE0
:401500001FD322E0A388002B1FD0302B19D31CE02389002B19D0282B13D316E0A289002A13D01346134F233BBB420AD20DE0268A002A0AD033460F4F233BBB4201D2964298
:4015400003D901200EE0002001E000280AD16D1CEDB2099B9D42B7D31C2463435B1802998B42ACD89642AAD8AAE700008C0C002079020000BAFF000030B47446641E25786E
:40158000641CAB4200D21D46635D5B00E31830BC18470000FFB583B0002469460C801F4606468C80002806D00598002803D004983043800701D0012466E0002FFBD0344946
:4015C000049809888842F6D3FEF7CCFFFFF702F800F016FC002855D100F07EFD002851D12C49084601F044F905042D0C4AD12A480499066081800021C18007810C98007AAA
:40160000C00704D0684601F07EFD040007D10C98007A800703D501A801F07EFD0446BF1DFEB2002C20D13146059800F05DF804001AD10EF061FA040016D16A4610889288A6
:4016400008368518144AF1B29088D288AEB29319984207D3401B801A80B201F0F9FB050007D000E0FF25012400F062FA002D04D008E0F8B200F01CF9F6E700F085FA0749CB
:401680000120087000F0CEFB204607B0F0BD0000900C0020D5170000BC100020980C002010B503480078012801D101F073FA10BD980C002070B5084B0446DA889E880320D7
:4016C0005518B54206D8186880182060D8884018D880002070BD0000BC1000200148008970470000BC100020F0B587B007460D4600208900009006916846FFF7DBFF8446BE
:4017000000285DD1304800990160002117E02E4B88001A680629115406D22C4C0419667882185670628805E0C419203CA67A8218567022891B68C018491C4280C9B2A942EC
:40174000E5D300242DE0601CC2B2059025E01E4FA30039689600581840887118039604904E88B04217D938466F46FE80B6464F786E4677710297049F4F800168039F5E186D
:40178000767879184E700168764659184E800068029F18184770521CD2B2AA42D7D30598C4B2AC42CFD36046002809D168460699FFF780FF8446002802D1054900980860F0
:4017C000604607B0F0BD00009C0C002018300100A00C00207047000010B5002809D005494A68002A05D0011F08788000105801F0DDFA10BD9C0C002010B50446FFF76EFF2F
:40180000C0B2801DA0420CD307484068002808D0A100405801F03CFA002801D00470001D10BD002010BD00009C0C0020F8B516460D460446FFF752FFC0B2801DA04203D2C2
:401840000020C0430090F8BDB2B2E9B2684601F045FA0099481C03D0024AA000526811500098F8BD9C0C0020F8B50746FFF736FF801DC6B20A49002005460C680DE0617805
:40188000002907D06188B94202D32078FFF7B4FF002804D1241D6D1CEDB2B542EFD3F8BD9C0C002010B5002801D0FFF795FF10BD70B506460948002504680BE0617800293D
:4018C00005D062882078121D0023FFF7AFFF241D6D1CEDB2B542F1D370BD00009C0C0020FFB581B00A9F16000C4620D000F0F6F8054604281BD0002F0CD03846FFF7B4FF2A
:4019000020492A0151184860002810D03A460499FFF723FC1B4928010E504618778101980570200406D47D20C000444304E0FF2005B0F0BD6404640C00F0BEF8074604283B
:4019400007D000F053FAA0420BD800F04FFA201A03E0204600F0AEFA0020F06035720020E6E700F043FA009000F0BAFA00980121001B009000F0F0F802493A015118009811
:40198000C860E6E7C8100020F8B5042801D3FF20F8BD060116483418217A042903D0E068002802D017E00020F8BD00F01FFA054600F096FA00F0A0F804280CD001010C48A5
:4019C0000F18F8680021451900F0C6F80020F860284600F06FFA6068054D002801D0FFF761FF042020720020A8516081E060DAE7C8100020FEB500266A4630460123254951
:401A0000050169180D7A042D02D0C96800291BD000211154401CC0B20428F0D300246846005D002830D01B4821010818418947680568029100210160416004224181027219
:401A4000C160002E02D015E01354E3E700F054F804280ED001010F4808180190C6680021304600F079F801980021C160304600F021FA0126002D07D038460299A847002FEB
:401A800002D03846FFF70EFF641CE4B2042CC6D3FEBD0000C81000200EB5002005216A460090118150810348694600680EF0ABFE0EBD0000A40C0020074A002001018918DD
:401AC0000B7A042B02D0C968002903D0401CC0B20428F3D370470000C81000200549002002015218127A042A03D0401CC0B20428F6D37047C810002030B50A4B04200A4C36
:401B000000210A011219157A042D06D0D268002A03D09A4201D808461346491CC9B20429EFD330BDFFFF0000C81000207047000030B50020074C05460423020111190B7248
:401B4000A5504D60401C4D81C0B2CD600428F4D330BD0000C810002030B5094C00231A011219157A042D04D0D568002906D02D18D5605B1CDBB2042BF1D330BD2D1AF7E72C
:401B8000C8100020002070471CB5002469460C70142001902346054A05480EF039FE04480068401C00D1FF2420461CBD051C0000A40C00203EB5124A0146FF200023012406
:401BC000126800290DD0012914D0042908D104206946009308814B8110460EF014FE80B23EBD6846009304814381694610460EF005FEF4E768460093048143816946EBE78D
:401C0000A40C002070B545890468416800890300FFF7B2FC08280509091E22282628002006F07AF81EE0022908D0C8B22A4621460CF02AFF2046FFF735FE13E002202A468C
:401C400021460CF021FF2946204600F00DF809E000200EF0D7FA05E02046FFF7CBFE01E0FEF766FC002070BD014B0022DB681847A80C002070B5448905680089022803D0E7
:401C8000032809D0FF2070BD2246094C0023A46829460120A04708E0FFF7A0FA241DA2B200232946022007F03AF8002070BD0000A80C002070470000024800214160018022
:401CC00041807047A80C002070B50C46002186B016460391012802D0022859D116E003A9012007F071F801281BD1039D324621462846FFF732FA00952878019002206946AD
:401D000008814E816846FFF7B5FF41E0214D002B686809D0049004A9022007F055F801281DD0022006B070BD002812D0298840182146FFF712FA28880024801980B228800B
:401D40006988091D884206D12C801348FFF792FF03E00320E6E788421AD96C6018E004986860E278A378110219430B4A698000231060E3565360032313815181A17881702E
:401D8000E178C1706178417021780170042028800020C7E7A80C0020081100203EB515460C46022803D004280CD000203EBD0091019002206946088107484A8100680EF0A2
:401DC00022FD07E00CF060FE044B0022DB6829462046984701203EBDA40C0020A80C0020014AD16090607047A80C0020034801688068081A0A2148430009704714110020EB
:401E000010B5FEF7CDFB4C2204490548FFF7A5F903490120C870002010BD0000343001001815002010B5FEF7DDFB10BD70B5134C2368002B08D0207B1149C20705D04008F4
:401E4000400020738868A08070BD88680B4AA18880B29268814203D90A4D691A091802E0814202D2411A5118A160A080A0689842EAD30EF0E5FC00F013F870BD14110020D5
:401E8000C0102E40FFFF000010B508461946FFF7A7FF10BD704710B5FFF780FF10BD000003480021016041608160C1607047000014110020024610B5FF20002A0CD0FFF7B9
:401EC000EFFF064C0321207B0843207310010A21FFF718F82060002010BD00001411002000B504480A21806848430209FFF7D8FF104600BD141100200248007B8007C00F27
:401F0000704700001411002010B54B490868002802DA4A4B01221A70022290430860484800694549C00B4031096A0246C907C90F0A4259D0012000F0EDFA3F480E216C3052
:401F4000FEF718FC3E4820218430FEF713FC3C4814219C30FEF70EFC3948FF21C131A430FEF708FC3648FF212F31B030FEF702FC33483449BC30FEF7FDFB31483249AC3083
:401F8000FEF7F8FB30492E48491CB430FEF7F2FB2B482E49B830FEF7EDFB29482C49CC30FEF7E8FB26482B490830FEF7E3FB24482949A830FEF7DEFB214828498830FEF7BE
:401FC000D9FB1F4826498C30FEF7D4FB1C481921C9029030FEF7CEFBFEF732FBFEF7BEFAC0B2022812D01FE000290BD0002101420AD0114801216030FEF7BCFB0120FEF775
:40200000F9FA97E70121F2E7FF2010BD15491648FEF7B0FB14481549001DFEF7ABFB124800210830FEF7A6FB54200449C043891C0870002010BD000000F02E40B80C002021
:4020400000002E40320300002F3F00003102000010520000EC160000FA12000031D000003AE300009956000080012E40F80F000070B50646581C80B245086D00002408E0CC
:40208000304600F0C1F81055000A1119A41C4870A4B2AC42F4D3D80705D0D0182038D15CC47FD454C17770BD30B50A4C002100195B1E07E0541864782502545C2C4304800D
:4020C000891C89B29942F5DB994201D1515C018030BD000000102E4010B5FF2000F01AFA0F49FF2048700E481021801D41800121417001700A490020C91C4870FFF704FFC6
:4021000004000AD100F02EF907210648FEF734FB044807211830FEF72FFB204610BD0000B80C0020CC112E4070B5002405465B1E0AE0284600F068F8010A161971702D1DB8
:402140001055A41CADB2A4B29C42F2DB9C4203D1284600F059F8105570BD000070B500210A4D5B1E0AE0541864782602545C344346193480001D891C80B289B29942F2DB66
:40218000994202D1515C4019018070BD00102E40F0B50599091FCFB200217E1E0BE0541864782502545C2C43164D45192C80001D891C80B289B2B142F1DBFC0712D01C7849
:4021C000515C24020F4A0C4381180C809C785D78001D210280B2294384182180001D80B2D9780CE059781A7809021143054A84182180001DD9789B78090280B219438018AF
:402200000180F0BD00102E40014940180088704700102E4010B50B490020487000F0A2F8002000F09DF9002000F08AF907210648FEF7A2FA044807211830FEF79DFA002070
:4022400010BD0000BB0C0020CC112E4010B50C48007801280FD100F08DFF00F0DDF8002804D10848016A490849000162054802213030FEF77FFA02490020C91E087010BDFA
:40228000BB0C002040F02E4010B50B46062812D006DC01280CD0032801D1FFF7BBFF10BD0A28FCD00B28FAD105480078107010BDFFF712FF10BD1146184600F06DF910BD58
:4022C000BE0C0020F8B5244DAC6A0127A007234E002816DA307806280ED1286A384328621F480069F903084381B21D481030FEF741FA042000F00EF9174802212830FEF713
:402300003BFAE00718D000F0C5FF01280FD1002001F012F8062000F0FDF81049FF20C91E48707078002802D1686B384368630A4801212830FEF720FAE0050BD5307804282F
:4023400002D1052000F0E6F80348FF2101312830FEF712FAF8BD000040F02E40BB0C002000002E4010B503212348FEF703FA0120FEF760F920483038406A204C80076178FE
:40238000800F890001431C480C38FEF7F3F96078002808D0401E022181401820FEF79CFEC000083800E0B82081B21548FEF7E2F91348032109021438FEF7DCF910481149ED
:4023C000B830FEF7D7F9612189010F48FEF7D2F90D480321001FFEF7CDF90C490C48FEF7C9F90B480B496038FEF7C4F9084801218838FEF7BFF910BD70F02E40BE0C002005
:40240000D8102E4090890000041E2E40FF0F000058122E40209000000449012009684907490F022900D000207047000000010B4000B5FFF7F1FF002805D009480168C9083F
:40244000C900016000BD0748016A490849000162054801690122D2039143016100BD000000010B4040F02E4000002E400848017806290BD140780749002803D1486B4008F1
:4024800040004863C86A01221043C86270470000BB0C002040F02E400148007870470000BB0C002002484078022800D001207047B80C002000B50300FFF75EF8080D050DE1
:4024C0000B070507090D012000BD032000BD042000BD022000BDFF2000BD0000074A9168D26889B2064B92B2994204D105498A4201D1012100E000210170704780002E4025
:4025000033D000003FE300000149487070470000BB0C002010B50446FEF75CF8072C01D9FF2C01D102480470FEF75CF810BD0000BB0C00200149487070470000B80C00201C
:4025400010B5064A012805D01921C9021046FEF711F910BD1D21C902F8E7000090002E4010B50A4A141D012808D009491046FEF701F908492046FEF7FDF810BD0449104648
:40258000891CFEF7F7F80349491DF3E788002E4031D000003AE3000070B50C460546FDF7DDFFC0B202280E49287804D0FF2810D04C280CD810E0FF2809D10A4AD068000419
:4025C000800F032801D0087807E09069000A553803E00878207070BD4F382070087070BDBA0C002000002E40F0B50122002834D0002932D00424420600D0052479234206BD
:402600005B06D21800D0641C034600221EE00C2516466E43124D00277519AF72104F002ABB51696007D0661EB24209D10D4E86197606760E05E05E06760E8027BE1B00E075
:4026400080269B198919521C2E81D2B2A242DED303480549006B002288611046F0BD0000A013002079020000C40C002018B50020694608700A48006900280ED01321490185
:402680004018047E684604704F21C900054800F05BF8A04201D0012018BD002018BD0000C40C002024110020074900200C2242435218927A012A05D0401CC0B20628F5D315
:4026C0000020704701207047A0130020F8B50F000446164609D01A4D1A496868A04202D94018A04201D38E4201D90120F8BD39462046FEF723FD002820D0324639462046C9
:40270000FEF72BFD0E49F0B2012620318E7600210C220B4653430A4A9A1813895568EF18A74207D9641B1B1B9672834206DAC01A1469C0B2491CC9B20629E9D30020F8BDD7
:40274000A013002079020000034610B50020024604E09C5C2018521CC0B292B28A42F8D310BD000070B500F05FF8084C064A216907480D46FEF7F1FC05492846FFF734FFF6
:40278000FFF774FF207070BD79020000C40C002024110020002070470020054A002902D0012902D002E0906000E0D06000207047C40C002070B5084C154608460549E26893
:4027C00089182A46FEF7C9FCE0684019E06028B270BD000024110020C40C00203EB50A226946FFF7E7FF044606480A2200686946FEF7A4FC002802D00020C0433EBD204649
:402800003EBD0000C80C0020002802D0044A914201D2FF20704703494A6108610020704779020000C40C0020024800218160C16070470000C40C002070B5074C154605480F
:40284000A26880182A46FFF741FFA0684019A06028B270BD24110020C40C002010B503490A220968FFF7E8FF10BD0000C80C002010B50F4A002313600E4A13600E4B1860C7
:402880000E4801600E49012008600E490860000290600E490C4808600D4914300860FF381538506000F0BCF800F0CAF9002010BDF80C0020E00C00200C0D0020100D00209D
:4028C000FC0C0020EC0C0020E8140020F00C0020040D0020014610B50020002910D0094B1A689C685118A14209D25868196080188A0704D08A07920F891A091D196010BD82
:40290000002010BDE00C0020F8B50024164E671E321F3D463168136806E01422624310328A58521C1BD0641C9C42F6D36A1C14D02C461422544322460C3288500C214843B8
:40294000FFF7C8FF3168002808510AD031680020103408517068401C70602846F8BD2546E4E73846F8BD0000F00C0020F3B50026F64381B000281BDB1E490968884217D8BD
:402980000299002914D01B4F142204463F1D54432546396810354859401C09D0FDF71AFE38682F1F4159C359994203DBFDF71AFE3046FEBD214608310091465801590C2070
:4029C000704308180C220299FEF7C7FB0948761C001D0068C159B14200D100260549009A091D865008684159491C4151FDF7FAFD0020FEBDEC0C0020002803DB074909688E
:402A0000884202D90020C043704704491422091D096850431030085870470000EC0C0020F0B500200D4A451E0346171F50600FE014260146714314680E1DA3510C461668BE
:402A4000083433511668083435511468401C635039688842ECD30020F0BD0000F00C0020F3B50026F64381B0002841DB2349096888423DD8029900293AD0204F14220446C3
:402A80003F1D54432546396810354859401C2FD0FDF7A0FD3868415900292BD0211D009146580C21005971430F46C1190C220298FEF753FB11480021001D0068761C00591C
:402AC0000C34C0190160416081600C48001D00680159B14200D100260849009A091D865008684159491E4151FDF77CFD0020FEBD3046FEBDFDF776FDFAE70000EC0C0020FA
:402B0000FEB504460D4600201E49089E0860471E009001900290002C11D0486885420ED2002A0CD0002E0AD0642E08D808460C3001681C2068430C18207A002801D03846A5
:402B4000FEBD0120226020721846FFF7DDFE6060401C13D06681A6810A4827610C3067610179A94200D205710021684601810A462846029B00F040F82846FEBD00202072EF
:402B8000DDE70000F80C002038B50124009400F039F838BDFEB50027164EFF433D4600240EE01C20316860430818017A002906D04068FFF721FF002801D0254603E0641CC5
:402BC0003079A042EDDA681C12D01C2130684D434419FDF7FFFC69466068FFF741FF0546FDF700FD002DD9D1216868468847D5E7FEBD0000040D002038B50024009400F069
:402C000001F838BD1FB500220C49541E0A60002811DB496888420ED808491C220C31096850430818406801A9FFF7A0FE401C02D0002004B010BD2046FBE70000F80C0020F9
:402C4000F0B50021114A4D1E174611710C3F0B46BD6016E008461C2460431668041D355114680646235014680836A3551468361DA353044616680A34335318301468491C7D
:402C8000255078688142E5D30020F0BD040D002038B500210091002811DB0F49097888420DDA0D4D04010C3529680859002807D0201D0818694600F06FF9002801D00020FB
:402CC00038BDFDF787FC28680F34015D491E0155FDF788FC009838BD140D0020F7B582B0002502986E1E06602E48D21C024017462D4A2C4610460C380178106805E0230125
:402D0000C358002B0FD0641CE4B28C42F7D3711C28D03401211D40180191039900F02AF900281FD101E02646F1E71F48016820460C300F521C480399026820460E301154AC
:402D400019480399026820460F3011540398784300F0A0F8144900280968085102D00024009011E001251AE00F48016801980818009900F02CF9002801D0012502E000985E
:402D8000C0190090641CE4B203988442ECD3002D05D10298066004480179491C0171284605B0F0BDFCFF0000200D0020F8B50D4600216A468C461180002839DB234909785F
:402DC000884235DA214B04010C3319680A59002A2ED020460C300B5A801C0E5C184670438018954224D3854222D2002006E007465F43BF18AF4206D0401CC0B2B042F6D3E3
:402E00006046002814D0114E271DC8190C366A46294600F006F900280AD168460088012808D030682946C01900F0D1F8002803D00120F8BD0020F8BDFDF7CCFB30680F34FD
:402E4000015D491C0155FDF7CDFBF3E7140D0020F8B50F46002400F031F8002817D10C4900220B460C334A600EE021011D680E466A501D680C36AA53B61C1D680F31AA5565
:402E80001D68641C6A54E4B2BC42EED31A71F8BD140D002000280BD0C01C074A81085068890053884118994203D89368516018187047002070470000140D0020F8B50646F1
:402EC00000200F4D009029700C0121466846FEF7F1FB00280CD129460C3100980860301B001F84B221466846FEF7E4FB002801D0FF20F8BD6C800098A8600020F8BD0000C2
:402F0000140D0020F8B5002827DB19490978884223DA174C05010C342168485900281CD028460C30085A009028460E300E5C401C0E5420682F1DC01900F064F800280CD17A
:402F40002068002445590EE0094829460C300068C01900F03CF8002801D00120F8BD00982D18641CE4B2B442EED30020F8BD0000140D002030B50D4604000BD0A800FFF774
:402F800089FF6060002805D000202570C0436080002030BD012030BD70B50D46040005D0002D03D00220205E002801DA012070BDFDF710FB0221615E606889004058286085
:402FC0006088401E6080FDF70DFB002070BD70B50D46040007D0002D05D002212078615E401E814201DB012070BDFDF7F3FA6088401C00B26080616880000D50FDF7F2FA0B
:40300000002070BD10B5040009D0227800216068FEF7ACF80020C0436080002010BD012010BDF0B500231D46002802D00224045F0AE00120F0BD46689F00F6598E4201D103
:40304000012503E05B1CDBB29C42F4DA15700020F0BD00000148007870470000280D00207CB505460024FEF7B9F8A8796946087000A8062229460130FEF76FF8002168464F
:4030800005F022F90C2806D0072806D01F2806D0122806D006E0022404E0042402E0272400E0012420467CBD10B502280BD0032802D0042809D102E000F0CCF905E000F0A2
:4030C00077FAFF2801D100F087FAFFF7E5F9FFF7F1F910BD10B500F0AFFAFFF7DDF9FFF7E9F910BD70B504460025FEF777F8002C06D0A079012803D8214602F015FF00E041
:403100000125284670BD01460120002902D05020088000207047000001460120002905D0034854220078504308800020704700002A0D002010B502460D49FE204870032454
:4031400010460DF083FE002810D10DF027FE00280CD105F095FE002808D100F063FC002804D105F057FB002800D10024204610BD280D0020024800210182802101807047C3
:4031800000102E4070B50025044600280ED0A07901280BD8FEF722F8A0790028204602D003F0A2FA03E003F077FA00E00125284670BD0000014610B50120002904D0062281
:4031C0000248FDF7CAFF002010BD0000340D002001460120002903D00878024908700020704700002A0D0020F0B5002493B00E46054627461094FDF7F1FF00F07DFE002872
:4032000036D0002D0CD0EA7F1F2A01D9012407E000A829460130FDF7A0FFE87F69460870002E0FD0002C29D1F27F1F2A01D9012424E008A831460130FDF78FFFF07F08A994
:40324000087001E0002C19D10020002D05D011A9684600F0A1FE10900120002E05D011A908A800F03DFF074601201099394301D0022403E0002801D000F0FAFD204613B0F6
:40328000F0BD10B5FFF708F9012801D1FFF70AF910BD00000148007A704700002416002038B504460120002C20D0617801291DD800290BD0FF25E535FDF790FF0C4828184B
:4032C0000088C0B22070072803D00EE0FF25CD35F2E70020694608706846FFF7FFF869460878012801D108202070002038BD000000102E40014A002192681047280D0020EC
:4033000008B500226B461A7026280CD0094A342852680BD0352805D1900703D50021352005F08AFE08BD19462620F9E7D007F9D03420F5E7280D0020014908727047000086
:4033400024160020F8B504460120002C26D06178012902D92278092A20D8002905D0FF25E5352078092803D004E0FF25CD35F8E708202070FDF732FF2078114F114E0828F1
:403380000DD00020FFF7ECF870780128207810D00D4969180880FE2070700020F8BD0120FFF7DEF80720B8810549203188800120F2E7B8810248217820308180EBE700004E
:4033C000C0112E40280D002000102E4070B50E46050001D0002400E00C4C002C11D0E28A500609D5D107C90F022003F01BFAE08A40218843E08204E0D107C90F012003F0E9
:4034000011FA3146284602F0EBFE70BD84150020F8B50546002004460D4E009013E022466946284601F052F90098002801D00DF0EFFCA878214602F0B5FCA878214602F0BE
:40344000A3FC641CE4B2308AA042E8D8F8BD000050160020F8B54E4CFFF71EF8012847D14C480078002843D002F042FE00283FD004F0B0FB00283BD0474E7078C00703D0D3
:4034800000F040FD012833D0307E00287DD17078002500285BD0000706D540488089070B00F02EF9384370D13B484178684604F0D9F9217A3A4CA2788918C9B2814262D8D3
:4034C00002F016FE002860D0344860300789324E203602F057FC6846008802F081FC02F01DFD30490988884203D10120FFF712F84BE02D49012008702748807B00281DD084
:40350000002F1BD04036F07E002817D123486030008821494000C031498981420AD26078002807D103F0ACF92049088A03221202104308822078002800D0257002F086FCD4
:403540000120FEF7E1FF00F049FC174C15E002F0CFFD002819D0102402F0E0FC214602F0C9FB02F03DFC104C0120207002F06EFC0020FEF7C9FF00F031FC20780128B4D106
:40358000FEF756FF25700020F8BDFF20F8BD000058150020B80C002064150020A0102E404E0D0020600D00203A0D0020E0112E4010B50848FF244078002809D102F098FD14
:4035C000012805D1FEF742FE0720FEF7A3FF0024204610BD6415002038B5FEF75DFF012801D0002038BD02F083FD00280AD0114C6078C00703D000F085FC012802D0207E4F
:40360000002801D0FF2038BD617800290FD0684604F028F9022806D96846008802F0E0FB012002F01DFC0320FEF774FFD9E70020F7E700006415002038B51E4CFEF72CFF48
:40364000042813D0052811D0062812D003282AD007280AD100206946087002460120FEF713FEFEF719FF0128FBD138BD00F0D6FB38BD02F00DFC00F0D1FB02F089FC8007D6
:40368000800F0228F4D10C4841880029F0D05B21095D0029ECD101210170A07D0140022003F0C0F838BD02F0F7FB0120FEF732FF38BD0000841500204E0D0020F8B50646BE
:4036C000002403F01DF90546304603F033F903460A480021068A0DE001228A401046174628401F40002803D0002F01D1224394B2491CC9B28E42EFD82046F8BD501600205E
:4037000070B500252C460A4E03E0002C01D0002000E030460079002803D02046FFF7CEFF0543641C2406240EEFD0284670BD0000841500201CB50020694648706846FFF74F
:40374000AFFD01AA69460A20FEF79EFD6946042008561CBD70B50D4601F09EFB04000BD02079002808D0FDF739FDE178A0782A4602F0BCFD002070BD022070BD01480079F1
:4037800070470000581500204030C07E002800D00120704700B500F001F800BD902148430749084A40186030417F491CC9B24177D289914201D300214177C8B270470000C2
:4037C000641500205016002013B501F065FB04000BD001F01CFF002807D0214601AA0A310620FEF751FD00201CBD02201CBD000010B50C4601F050FB00280AD001F007FFB1
:40380000002806D0224604490A20FEF73DFD002010BD022010BD000045150020F3B581B0074601460026029803F062F80446002F01D0002500E0154D002D21D0284601F07E
:4038400061FB032C04D13946029803F0ADF806463846029902F098FA032C06D0002C10D00121384601F054FC03E03146384603F0ABFA284602F076F90221284602F08CF915
:40388000FEBD3846029902F07FFAFEBD8415002010B5044600F04CFA002804D103F076FF002801D00C2010BD2078611C02F024FEFF2801D01F2010BD02F06AFEFF280AD031
:4038C0002178621C02F0E8F9044821780068026B601C904710BD072010BD0000740D002010B503F053FF002801D00C2010BD02F0E5FD03480068C06A8047002010BD00000E
:40390000740D002070B50D46044610210DF0C0F91021601806460DF0BBF9334610221946204603F061FF102130460DF0B1F902202870204604F0A4FE70BD0000FEB50446A6
:403940004078217802028006870FE0781143A5780E050002360D0543304601F09DFAEAB23B4621460096019000F0FAF90006000E14D10B4822460068019943692846984732
:40398000C0B2FF280AD10198EAB24030817EFF23491C81762146019800F0E1F8FEBD0000900D00200020704710B5044603F0EEFE002801D00C2010BD2078611C02F09CFDD9
:4039C000FF2808D002F0D0FC044821780068426B601C904710BD1F2010BD0000740D002010B500F06BF904F015FF002010BD10B5044600786178E2780843A1781143084378
:403A0000217908436179084305D003F0B1FE002803D00C2010BD122010BD204602F064FE002010BD10B5FCF799FD02F08BFF044804F010F802F0A2FC012000F003F810BDF0
:403A40002C150020F1B586B003A8009005A8019028489F22017B114001736846FDF7D8FB002845D169460989C90705D0224806990068C2686846904769460989890706D5B9
:403A8000002835D11D480068816A0698884700282ED11B4E0025757075737571F575357675767575B570F570B5713746F5730120D03738731F20F880FF2130467972A030F1
:403AC0000176457600F028FB00242046069901F049FD002803D1641C2406240EF5D0FD720749BD72B573C0310D704D704D600D7207B0F0BD18150020900D0020740D002008
:403B00006415002070B505460E46084602F0F8FE0446304602F00EFF0121A9400A46224001400A4301D0012070BD002070BD10B50446084602F0FEFE0121A140014201D01A
:403B4000012010BD002010BD10B5FEF7A5FC032804D102F0A1F90120FEF7DCFC10BDFEB51C4616460F46054601F0FCFFA878FFF711FE02460190334639460094284600F0E3
:403B80000DF8002808D1A8780199FFF71FFCFF2C02D138460DF03CF9FEBD0000FFB585B005460E980C46FF2810D02B49C00009680A5840180179C0795278814201D90126F8
:403BC00001E09006860F6846038108E06078A1788006860FE0780002014368460181284601F046FD070007D021462846079A00F001FD384609B0F0BD304600F0AFFD04AE39
:403C00000346039002AA29460096204600F019FC3C20405D002818D0284601F029FD012813D0684600890096C0B20190A878231DFF22079902F088FA68460089039BC2B244
:403C4000A878079902F0CCFDD3E7684600890021C0B20091E9E700008C0D0020F8B5002600253046FFF72AFD07001DD090201149704340186030447F12E0601CFDF742F9A7
:403C8000CCB23846E040C007C00F07D02146304602F070F821463046FFF7C0FD6D1CEDB20548018AA942E8D8761C3606360ED7D0F8BD0000641500205016002010B502F0C5
:403CC0005DFB0020FFF7BEFE0DF038F9002010BDF8B5002400F010F90123012800D10124104F00203E4620360425082203E0002801D0002100E031460979002907D00129C6
:403D00000BD002290BD0114681402143CCB2401C0006000EEBD07C70F8BD1C43F7E72C43F5E700006415002010B5FFF7D1FF10BD10B5044604F0C0FE002802D1601C00F03B
:403D400001F810BD1CB500240094062269460194FDF7F4F9002800D1122420461CBD0000F8B5044600201E4617460D46002C12D0002D10D0022E0ED0032E0CD0002F0AD0CF
:403D80002179092907D0002905D013494A7F5A21095D8A4207D82089002104F0A6FB28460DF036F8FF20E18F012905D1002F03D0012E06D0002E04D0374301D10121E1874B
:403DC000F8BD0021E187069A2A70069A120A6A70AF70E970F8BD00001815002070B50E4CFDF703F80546FEF757FB062802D02078012803D02846FCF7FCFF70BDFCF7BEFC71
:403E00002846FCF7F6FFFEF747FB0628F5D020780028E5D170BD00003A0D002010B5FCF7E4FF0446FEF738FB012809D0FEF734FB022805D0FCF7A2FC2046FCF7DAFFEEE72E
:403E40002046FCF7D6FF10BD10B50B4681791943817103D08078114602F090FC10BD10B582798A43827102D1807802F09BFC10BD30B50C4C0220A28A0B4B9978002901D0EF
:403E8000022906D11D785B78EB18282B01D9032002E0032900D101205105490DC0020143A18230BDC0112E40440D002000B500F029F8002807D0012805D0032801D00428E8
:403EC00001D0002000BD012000BD014600B50020C90701D000F010F800BD014600B50020C90701D000F008F800BD000001480068704700003C0D002001480088000A7047F7
:403F000020102E400448008B410501D5042070474007800F7047000000102E4001484068704700003C0D00207CB50446002568460570200610D5FFF7E5FF01280CD101A8A2
:403F400001F0BAFF6846007900F058FB012001F071FE0220FFF7E8FE600712D50C48017901290ED10571684601F0A6FF6846007800F078FB0220FFF7D7FE00212620FFF7FC
:403F8000BFF9044800680169204688477CBD0000480D0020740D002010B501460A4A007800241070FFF7A8FF0128084603D002F007FB204610BD00F0E7F80400F9D1034835
:403FC00001210170F5E70000440D00202416002070B50446FFF790FF002801D00C2070BDA27B01211F48002A827801D00A4301E05208520082706279012A14D0C178490866
:404000004900C170184D2868016820468847207901280CD06188208803F066F92080207904280FD015E0C2780A43C270EAE72868C168E01D8847E01D02F042FB0B48008D9E
:40404000208006E02868C168E01D8847E01D02F037FB074920798870204602F0BFFA002070BD000064150020740D002018150020440D002008B50178FFF73EFF814201D1DF
:404080000C2008BD002914D0072069460870FFF70DFF012807D10121684600F0E5F8012801D0092008BDFFF7E3FE02F0CBFA012011E0FFF7FBFE012806D1684601F0FCFE04
:4040C0006846007800F0CEFA02F0B2FAFFF714FF0028FBD10220FFF727FE002008BD000010B501460A4A007800245070FFF704FF0128084603D002F021FB204610BD00F0F5
:4041000065F80400F9D1034801214170F5E70000440D00202416002038B568460CF00EFE002801D01F2038BD01210098C902018041800025057145718571072141738573DD
:4041400002F04CFA009C202200212046FDF70EF825702A460021601CFDF708F8204602F02FFA204602F0EAFA00980CF051FE062200210448FCF7FAFF02480C38856000205E
:4041800038BD0000480D0020F8B5044600250D4800950078012806D068460CF0CFFD002803D007250CE00C250AE0074E009830602278611C401CFCF7D0FF31682078087019
:4041C0002846F8BD241600203C0D0020F8B5044600250D4800954078012806D068460CF0ADFD002803D007250CE00C250AE0074E009870602278611C401CFCF7AEFF7168F1
:40420000207808702846F8BD241600203C0D00200346084800B5834209D8184600F03CFE002804D00089984201D1012000BD002000BD0000FF0E0000074A9179491C8906C4
:40424000890E917138220A4092014907090E1143084302490840704764150020FF0E0000C006C00E70470000F8B507460E4600240D4803E0002C01D0002500E00546297994
:40428000002905D0641C2406240EF3D00020F8BD0021204601F066F92E712046FFF7CCFF28813C700120F8BD8415002010B503F0CFFA0222002100F003F802F00BF810BD98
:4042C00010B5094B40074907000F090F185A595A40185043C0086421FCF714FE002800D1012080B210BD000080300100F7B53D20405C88B015460C46002802D0287804286B
:4043000002D200200BB0F0BD6946087200262046FFF73AFA012800D00126204603A938300191009023460327A17E34333246206A03F0AAFB02A8089900900B4601912046AF
:404340003A4603A9243003F02FFA02466846007A2870204601F0F2F81046D3E7FFB587B00C4605461078694608723D20005D1746002826D000262046FFF706FA012800D05F
:404380000126204603A93830019100902346A17E34333246206A03F077FB02A80090291D019120462B1D03A924300A9A03F0FCF902006846007A388002D1204601F0BEF8D6
:4043C00010460BB0F0BDF0B505463C20405C89B016460C4600280CD0307869460873002806D000272046FFF7CFF9012803D003E01F2009B0F0BD012703200890204604A997
:404400003830019100902346E17E34333A46E06903F03AFB6846007B03A928180290009120462B46019504A92430089A03F0F0F902466846007B3070204601F089F810466F
:40444000D7E7FFB505463C20405C89B016460C46002810D0084601F00BF901280BD0308869468883002809D000272046FFF78CF9012805D005E000200DB0F0BD0220FBE765
:404480000127204603A93830019100902346E17E34333A46E06903F0F7FA291D2B1D07A8129A6D4607C5204603A924300C9A03F0AFF902466846808B3080204601F048F805
:4044C0001046D9E770B50C460646FFF75DF9012824D06079227900020243E079A37900020343607A921F0102207A0843E17A0D02A17A154C294335464035A24207D20A384E
:40450000221F904203D2FF20F43083420DD91E202873304600F0C8FB1E2070BD00222421304602F027FE242070BDB07801F0BEFD012801D0002070BD28202873304600F06F
:40454000B3FB282070BD00007B0C0000002801D0002000E003484030C07F012800D0002070470000841500200146002049070ED50021084B03E0002901D0002200E01A46C8
:404580001279022A04D0491C0906090EF3D0704701207047841500200146002049070ED50021084B03E0002901D0002200E01A461279022A04D0491C0906090EF3D07047FD
:4045C000012070478415002010B5044680346068002803D00CF030FC0020606010BD4030417070474030817070474030017070470171704792001018C166704770B53C2500
:4046000001F030FA040004D020460021433001F0EDFCFF222946204600F0E8FB002C02D0A07801F0A1F970BD10B5002801D0002000E00348002802D0008903F09DFF10BD34
:404640008415002010B5002801D0002000E00448002804D00179072901D100F047F810BD8415002010B501F0FDF9002802D0807801F07AF910BD00207047000070B5054634
:40468000008A00281ED01049F122097B1140C90618D5294640314A8A098A521C4A4392B2D10800D10121540801E0621A94B2A042FBD9FEF7CFFC012804D1298AA87822465D
:4046C00001F0CAFD70BD00001815002010B50023054C0B60248A944204D992001018C26E0A60C36610BD00005016002038B5044600200090A079002814D14020015D0529BA
:4047000001D00E290ED168460CF028FB002809D12046009902F00CFD03481021428B2046FFF792FB38BD00001815002010B50B4604460146184602F06BF9002802D020469A
:404740000CF070FB10BD13B5044601AA11460620FDF79AFD6846818861811CBD002800D10220704770470000F8B504462346401D543300909A1EA078911E01F0B9FB2546E2
:404780004035A88A298A8000FCF7BCFB401E81B2688A884203D96982A07802F07DF8698A8C20015120460021433001F01FFC27480088E88103F04CF8E989891C8AB2617927
:4047C000FFF77EFD01F086FD03F042F82A8A6179FFF776FD074601F071FD688A002806D01B49088A032212021043088202E0002002F046F81648803801886E8A002E0CD035
:40480000304648431349FCF767FC0004000C01D0401C80B21049488002E00F4800214180288A704381B2A07801F096FFFF2228374932B9B21346204602F05AFDE98AA078EB
:4048400001F00AFFA07801F0BFFAF8BD80102E40E0112E40710200004E0D00207FB504468034616805460E46183108226846FCF774FC31462031082202A8FCF76EFC102134
:4048800068460CF005FA6068102108300CF000FA60682B46083024331022694602F0A4FF7FBD10B504460821FFF7D9FA10212046FFF7D5FA207905281FD006281DD0082851
:4048C0001AD12189002003F0CFFD072020712046FEF75AFF014620464030012913D00E21017000210176204601F050F82046FFF76BFE2046FFF7C2FE10BD2089012200213C
:4049000003F096FDE1E70521EAE70000FFB581B01F4604460821FFF7A2FA10212046FFF79EFA2079082803D0092804D0042203E00422012501E009220025204600F05EFEE5
:40494000264600204036307022712046FFF73CFE0398002D02D0012808D00BE001280AD120890022029903F063FD04E02189029803F07AFD012700203076012F04D020463F
:4049800001F004F805B0F0BD02983073204602F01DFC054605480121428B2046FFF754FA002DEFD109202071ECE700001815002070B50C460546FEF7E7FE012809D108213A
:4049C0002846FFF74CFA0023012221462846FFF79DFF70BD10B5044600F010FE2046FFF7F3FD00214034217010BD70B505461A24FEF7CAFE012809D108212846FFF72FFAC3
:404A00000023012221462846FFF780FF70BD0000F8B50446002000900E4668460CF09EF9002801D00D20F8BD8420005908212030009D00F02CFA20460421383000F027FA75
:404A4000002E02D1204600F03BFE2946204602F0FAFA0E480821428B2046FFF7F5F9204601F005F825464035002808D0204600F023F8002801D0092028700020F8BD0820F9
:404A80002870204601F06EF8F7E7000018150020014610B540310A460978082906D0092907D00A2901D100F091F810BD0B20107010BD00F001F810BD70B50446007925464C
:404AC0004035052805D0062803D008280FD00C2070BD03220621204602F04CFB0D480821428B2046FFF7B0F91120287010E006202873204602F06AFB0646AA8A0A20424335
:404B000001212046FFF7A0F9002E01D109202071002070BD1815002038B504460020009068460CF01BF9002801D00D2038BD2046009D00F0C3F908202071204600F0C0FDCF
:404B40002946204602F0B6FA00213D2001550F2040210855204601F005F8002038BD00B5024600F04BFD10214032117000BD10B50446FEF709FE012809D04020005D11287B
:404B800005D100231A4606212046FFF7BFFE10BD10B5FFF786FE10BD38B504460021684600910CF0DBF800280CD12046009902F002FB05480821428B2046FFF745F90D2020
:404BC0004034207038BD00001815002038B504460021684600910CF0C1F8002801D00D2038BD2046009902F0DBFA05480821428B2046FFF729F90C2040342070002038BD3C
:404C00001815002000787047F8B5002569460D70002801D0002400E01F4C002C18D0204600F0F5FC002813D0207903280BD005280CD026464036B18AA07801F097FDB078A2
:404C4000012806D01DE0042020711DE006202071F8BD0021204601F0F8FE274680373868002802D00CF0E8F83D600020B0702079072802D12046FFF701FD0221204600F0C7
:404C80008BFF20790428E3D1207A694608703420FEF736FBF8BD00008415002010B54C22115400F052F810BD10B50446FF21FFF7D6F809202071A07801F07EFD10BD0000AB
:404CC00038B5FF216A461180002801D0002400E00B4C002C12D011460620FDF7D5FA684601882046FFF72FFD204600F0C7FC002804D104480068C1692046884738BD0000E7
:404D000084150020900D002010B504468079002809D022214C200155FF212046FFF79FF8204600F012F810BD10B5037902464032002B03D01173092B02D003E0002100E048
:404D40002221117300F001F810BDFEB504460089002700902781207926464036002817D0012815D002280AD112E002AA01A9204601F03CFE002807D101980CF053F8204615
:404D800001F05CFE0028F0D02046FEF741FBB776254680352868002802D00CF04DF82F606868002802D00CF047F86F60317B002919D0009800F064F8A078002101F026F8C4
:404DC0002046FFF773FAA07801F05AF9A07800F0CBFDFF212046FFF742F80B20FEF7A4FF00F0A8FCFEBD1F213173E2E7F8B517460E46054602F028FD04003CD020460C30D7
:404E000001F0E4F82046062200211830FCF7AEF92046062200211230FCF7A8F91648224600683946436A28469847074626702846FEF7AAFC012148406070002D10D02889C4
:404E4000608028464030C1782171002E0FD169796171018AE180418A2181808A608106E00648008BC005C00F2071002060803946204603F07CFAF8BD740D002000102E409D
:404E80000A4610B50146002003F08EFB10BD10B50BF0DAFC10BD000000B50146FFF7E0F9002801D0002000E00348002802D002898A4200D0002000BD8415002038B50446CD
:404EC00080346068002806D168460BF057FF002801D100986060606838BD000010B5014600F0C6FB0128887802D0FEF757FC10BD90214843024940186030007F10BD0000A1
:404F00006415002070B5054604464035A87F012811D1A1789020084A484380186030067F3046FEF7EFFD002805D10220A877A078314601F05FF970BD6415002010B50C4CD3
:404F4000A07A002813D0FEF789FE0A48027F417F408B00F0F7FB012809D10020A07200F0C1FF05498989090B01D000F03BFA10BD3416002064150020A0102E4070477047A5
:404F8000490510B5490F0B00FCF7F6FA060704080C0C0F073E21FFF781FE10BD0821FFF7C3FE10BDFFF7D1FE10BDFFF7ADFE10BDF8B507460025002D01D0002600E0204E72
:404FC00000F03AFF3046403044890021418100F057FF304600F01BFB01282BD1A00702D52846FFF711FEE00602D52846FFF768FEA00601D5FEF732FE600601D500F054FB77
:40500000200602D5284600F01DF8600702D5284600F046FA380402D52846FFF713FB780402D52846FFF700FBE00703D021463046FFF7A6FF6D1C2D062D0EBCD0F8BD000083
:4050400084150020F8B5002801D0002400E0284C002C4BD025464035A878012846D1FF278820493700593E46002805D02149097B890601D5878AC68A2046FEF785FB0128F2
:4050800034D002F0E5FB2A8A6179FFF719F9009001F014F900983346283081B23A46204602F026F9E98AA07801F0D6FA12480188688A124E002810D048431149FCF70CF8FE
:4050C0000004000C01D0401C80B27080A07DC107C90F002001F0A6FB01E000207080288A698A484381B2A07801F036FBF8BD0000841500201815002060112E404E0D00203F
:40510000710200000149096809680847900D002070B50D460026194A0146002801D0002401E014462034002C26D0204600F0A0FA01280AD19020484380186030007FFEF7E3
:40514000E1FC002801D101F0C1FF0D48006881692046884700280CD020464030817EA94202D3491B817600E086762089294603F0BCF9204600F0F6FC70BD0000641500202D
:40518000900D002070B503460088FFF785FE040013D000F03CFA00280FD02079092819D02546997840352973204602F00FF80646A878012803D0AA8A02E0022070BDEA88D1
:4051C0000A20424301212046FEF73EFE002E01D109202071002070BD0EB5002217216B460292198100905A810120029B00990BF0C3FE0EBDF8B518480024807A002822D1B5
:40520000164E0025B089000B22E0204600F008FF1249A039401807882A462146384600F091FA012810D00E480122478305770A4944778A72002D01D0002000E0203000280F
:4052400001D000F08FFCF8BDB089000B641CE4B20028DAD1F8BD000034160020A0102E406415002010B50088FFF716FE002809D0014640310C460978082905D00B2903D03A
:405280000C2010BD022010BDFFF716FC002801D009202070002010BD70B503460088FFF7FBFD040008D0254640352878082805D00B2803D00C2070BD022070BD842000596F
:4052C00010220830991CFBF748FF2046FFF7C6FA2878082804D02046FFF778FC002801D00A202870204600F03DFC002070BD000010B50C46002121700088FFF7CDFD03001B
:405300000BD000F084F9002807D00948F121007B0840C00603D4112010BD022010BD022020701A8A1889002103F05AF9002010BD18150020F8B50F46002100910088FFF7AC
:40534000ABFD040012D000F062F900280ED0E079410641D4617E02264A07002A08DB8907402500291ADA2843E07135E00220F8BD02F06AFA0021017021894180A1898180FC
:40538000217E4170E189C1803E7005460178134802F0F4FD284603F0C7F81DE0204600F06DF9012806D068460BF0D8FC002803D00720F8BD2A20F8BDE07900992843E07169
:4053C000204601F02DFF607E0421304360760448428B2046FEF738FD0020F8BD1D040000181500203EB500220F236C460292238100910190628169460EC900200BF0BCFD62
:405400003EBD0000F8B50F46054600F02BFB04002AD000F007F900282AD003202071254600264035EE76E6702046FFF79DF901F0FFF80920FEF778FCA07800F00FFE0121E7
:40544000204600F0A9FB2E706E70AE703A4600212046FFF7CBFC0F49887B401C8873A078FFF750FE022012E0284601F0A5F9F8BD002001F0A1F90848008B4007800F01287B
:4054800002D1064801F01CF901F0DCF80120FEF74BFCF8BD6415002000102E407C0D002010B5002801D0002000E0094800280DD0014640310A464978022901D10021517072
:4054C000807DC107C90F002001F0ACF910BD00008415002070B503460D460088FFF7DCFC04000BD000F093F8002807D01248F121007B0840C00603D4112070BD022070BDEA
:4055000020464030418A008A491C41430804C10C5888884201D2122070BD20822079072802D12046FFF7AAF8022028702089002103F07EF8002070BD18150020016A491C10
:40554000016204D1817E491C4906490E81767047C169491CC16104D1C17E491C4906490EC1767047F0B5074687B003A8009005A800260D460190002F01D0002400E01B4CF7
:40558000002C05D06846FBF743FE002803D00BE0022007B0F0BD68460089C00704D1902200212046FBF7E2FD114829460068826820469047050016D1A77066762746267186
:4055C00040373E70204600F019F8204601F032FA084820820848BE77007BF121084000D001202075E682E8B2D3E7000084150020900D0020B80B0000181500200021016204
:405600008176C161C17620300177417770470079002805D0012803D0022801D001207047002070470F49008908820E49603108880D4A801F904210D28888121F0A389042E5
:405640000BD20889FF21F431884206D8074800890006C00E401F0C2801D300207047012070470000A0102E407B0C0000E0112E404030807F002800D00120704740300078E2
:40568000002807D0012805D0052803D00E2801D0012070470020704710B5807801F04AF9002800D0012010BD10B500F01BFC03498989090B01D0FFF795FE10BDA0102E40DD
:4056C00070B5054604464035A87F002825D1FF206075A0789021154A484380186030417F9023491CC9B24177A0785843104B8018DB896030994201D300214177A078902171
:40570000484380186030467F0677A1783046FEF7F9F9002802D00120A87770BD0220A877A078314600F066FD70BD000064150020501600200020401C0006000EFBD00020AD
:4057400070470000F0B516468207920F87B0000A02926A469080002E01D0002400E07F4C002C21D0084600F05BFC074668468088002810D00298032817D00020009068461D
:40578000808821890491214620310391497F0546012964D067E07248381801882046FEF7D2FF304600F022FBD6E00020029002A80BF0B4FA002807D03D20005D0128F3D1FB
:4057C0002046FFF7BBFEC7E00298009068468388202B14D31F2300213846009AFCF748FC684680881F3885B2012305AA00213846FCF73EFC6D1E2D042D0CF5D104E0002183
:405800003846009AFCF734FC5548381801882046FEF799FF304600F0E9FA01AA21460098FEF764FD0028009805D00BF0E7FA3D204C2108555EE0C677009869460078898898
:4058400001F046FD00280099204602D001F064FA82E001F076FB00980BF0D0FA7CE0042820D3281F80B23F49097B890605D5882109594989814202D314E01B2812D9012367
:4058800005AA00213846FCF7F3FB6D1E2D042D0CF5D10398407F012800D07CE72046FFF74DFE78E768460BF029FA002802D0002007B0F0BD6846009D83882A1D00213846BC
:4058C000FCF7D6FB2648381801882046FEF73BFF304600F08BFA2046FFF799FE002805D026464036307E00281DD107E028460BF07BFA31E02046FFF7D7F92DE002980128B5
:4059000009D0022807D00398407F0128EED12046FFF714FEEAE7034601AA21462846FEF71DFD002805D028460BF05EFA3D203073E0E70298FEF716FF0146049828700498F4
:405940000901000A0843687068468088A870000AE8702846FFF740FC0120A9E78415002000102E401815002010B5074A917B002901D0491E91730021FFF7F4FD002801D063
:40598000002010BD012010BD64150020F8B5074606464037B87F00282DD0B078902100904843234945186035287F0099FEF7BFF801281ED0287F401CC4B21E48C089A042FB
:4059C00000D800240020B877FF276F772F77A87702460146009800F07DFD717DFF2903D0304600F0E8FF777501F070FB0025114F19E00320B877F8BD002000902246694630
:405A00003046FEF763FE0099002904D0FF231A463046FEF7A4F8641CF889E4B2A04200D800246D1CEDB2F889A842E5D8F8BD0000641500205016002010B502460021084B61
:405A400003E0002901D0002000E018460479944204D0491C0906090EF3D0002010BD00008415002000B50120FFF7E6FF00BD10B5044601F0E9FE2189018080346168416032
:405A800061682831816002F009FD10BDF7B50646087982B00C46092807D0A078F0770846FFF7E6FD012806D010E030460BF0BAF9022005B0F0BDA1789020294A484380187D
:405AC0006030007FFEF71EF8012810D0A078FEF73DFD01280BD037780121304601F09EFA25462035062F38D00B2F0FD107E06846027C21463046FEF719FE0D20D9E7204602
:405B0000FDF742FE012801D1002028772046FFF7E5F9054604AA21463046FEF754FC01205F2108556946097C002001910090A07833463A46294600F007FB69460A7CA078EF
:405B40000323294600F04CFEA0782946FDF73EFC30460BF067F90020ABE70120D5E700006415002010B502464032937F0021002B03D1927E002A00D00121064A927A002A45
:405B800000D000210279092A00D10121807800F069FE10BD3416002070B50C460546FDF7F3FD00280BD1012C06D92879092806D02846FFF771FD0446002C02D004E001244C
:405BC00002E0A87DC007FAD1A87DC107C90F204600F028FE70BD0000012807D0082804D104480282034808300180704701488038FAE70000A0102E40014908817047000084
:405C000000102E4010B50446FF20F130012C01D1FF20D530002200F057FE044A108A044980B2A0430880108210BD000000102E40520D0020034B198A034A89B28143118011
:405C40001982704700102E40520D002010B50446012802D0082C07D102E0FF20D53001E0FF20F13000F028FE0348018A034A89B221431180018210BD00102E40520D0020E2
:405C8000034B198A034A89B2014311801982704700102E40520D0020F8B505460120A84086B214460F46012231467C2000F00CFE3A463146782000F007FE60782678000233
:405CC0000643E078A2780002024360792379000203430C2045430D2080010549281844182680001D44182280001D40180380F8BD00102E40401880B270470000CB065B0E32
:405D00000343480901021943D00108430121C902084301490881704780142E404278037812021343084A1382C37880781B021843908248780B78000203431383C8788978E8
:405D4000000201439183704700142E40024A1080000C90801181704700142E40044A002180180288491C89B21029FAD37047000000102E40024A10820148803081817047D1
:405D8000A0102E407047000010B5054A1082084600F0BEFD024A0021A03A8018018010BDA0102E4010B50B46044600F005F819462046FFF7DFFF10BD024A1082014880309A
:405DC00001817047A0102E4010B504490882FF20002220211D3000F077FD10BDA0102E400149088070470000C0102E40000202494D3008807047000000102E400249888AE7
:405E00000422904388827047C0112E4010B5084B074C0202A03B0029208202D075321A8010BD04490020088088807632F7E70000A0102E40201A2E4000B5034908884880D2
:405E4000FFF7F8FE00BD0000520D002010B50120FDF772FA01495020088010BD00102E4006490E220028888806D01043888003495120C039088070479043F7E7C0102E405B
:405E800000B502484088FFF7FBFE00BD520D002010B5FCF7EBFA10BD014952200880704700102E40884201D8081A03E00022D243101A401880B2704700210170704700007A
:405EC0000748808806492039098B884201D8081A03E00022D243101A401880B27047000020112E400148008AC0B27047A0102E4070B5084C049D2082074804890548603097
:405F000006880E8001891180808818806007400F287070BDA0102E40E0112E400148008970470000C0102E4000280FD00D4A108B0870000A4870908B8870000AC8700948F2
:405F4000203000880871000A48717047064A10880870000A487090888870000AC8701089F0E7000040102E40C0112E4000B5024A00F004F800BD0000FF7F000000B513463F
:405F8000FFF790FF984201D8022800D2002000BD0148008A70470000001A2E40024908820248008970470000A0102E40001A2E40014880887047000020102E40024908823E
:405FC0000148803000887047A0102E40064B1A8999891B8A0270120A42708170090AC1700371190A4171704760102E40012904D00549098BC90B0170704703494031098912
:406000008907C90FF7E7000000102E40024908820248008970470000A0102E40201A2E40014840897047000050160020024908820248808970470000A0102E40001A2E40A3
:40604000044A10820448028980894843101880B270470000A0102E40501600209021074B414300B5C918FF2260314A770A7700228A77114600F02EFA00BD00006415002027
:4060800090225043074A10B58018FF21603041770177002181770448C18EFF201D3000F00BFC10BD641500201815002000B5044A1082034880308088022200F003F800BDDF
:4060C000A0102E4010B50023884201D8081A03E00024E443201A4018044980B2884201D8824200D90123184610BD0000FF7F0000024880880006C00F70470000C0102E406D
:4061000002488089C007C00F70470000201A2E4070B55478157824022543D47888232602947834435679127936023243002900D09823044908820348A038181805808480FB
:40614000028170BDA0102E40FFB581B014460D4607460A9E0B9BFFF773FF002E0AD0009333460021049AFCF713F805484019C45505B0F0BD0021049AFBF7F0FFF5E700004E
:40618000560D002070B502460448054D808808242C800B460021FBF7E1FF70BD50160020A0142E4010B5212402466401044953200880102300212046FBF7D0FF10BD000011
:4061C00000102E40417802780902044B0A431A83C1788078090208439883704760142E40034A1082802001430148803001817047A0102E40054A1082044A6032908B000977
:40620000000108439115084390837047A0102E4030B500210F4B0A46012809D0032802D005280AD107E04021198102210A2204E004210C2201E004210D221882054C2034A6
:406240002088C0B205460D42FAD022800021198230BD000080142E4010B5044607480482074801808280032189030820FFF7EEFC200202497530A039088010BDA0102E4087
:40628000201A2E40054A1082044A60321183000202494B30A039088070470000A0102E40054A491E1082044A60321183000202494C30A03908807047A0102E400349884212
:4062C00000D908460249088070470000FF0F000060112E400349884200D908460249888070470000FF0F000060112E408823002900D09823084908820748A03819180888AA
:406300001070000A507088889070000AD07008891071000A50717047A0102E4010B51446024606480B46C0880021FBF7FDFE012C02D103495420088010BD00005016002010
:4063400000102E40064A11880170090A417091888170090AC1700349542008807047000080142E4000102E400121814010B589B200227C2000F0A8FA10BD0000FEB5FF21E1
:406380000120FFF73FFCFF210820FFF73BFC3020FFF750FC4148802101804148414D00784007400F022873D001286FD100202880002211460320FBF767FF3B4E3B49308E57
:4063C00088823A4F002420373448A0300482B08F38822046FFF754FE641C2406240EF3D0314C3248403421882030018320462C3800F052F9B1697069019100906946487905
:40640000C021084369464871684600F06DF900F055F8224FE088A03738832089B8831F496089C03188802148F18E203001802048002404823920FFF723FC184E532030802C
:406440001C490720088354203080E020FFF786FCE820FFF783FCF020FFF780FC0020FDF725FF13488482282101838015B8810F48403084815B203080094800784007400FE0
:40648000022807D0012801D10B482880FEBDFFE703208CE70848C01CF7E7000000102E4050160020001F2E4018150020C0112E40001A2E4080142E40E0230000044800218D
:4064C0008183018302497420603908807047000060102E40074B1882064B6033988B00090001084399158843002A01D11021484098837047A0102E40F3B50D2284B092017B
:4065000000924A780B78120213430393CA788B78120213434A790979FF20120211431A4A8C46918B9E460291118B01911649742260390A80154900220F7921E00121124B72
:406540009140009C603BE3181D8889B21C881B88039E6E407546654064462E435C4026430CD1029B194209D00199D140CB070499DB0F8B4202D1104606B0F0BD521CD2B225
:406580009742DBD8F8E7000060102E405815002030B50949FF208C8B084A00210125137905E02A468A40224204D0491CC9B28B42F7D830BD084630BD60102E40581500200D
:4065C00010B50446E020FFF7C9FB20782246401CC3B20021E020FBF767FD10BD42790021012A02D901214171090342790A430179042914D049001143827B032A01D8D200F6
:406600001143427B52010A43817909021143012252031143054A118300889083704711460122920211430222E5E7000000102E4000B50120FFF7FEFA01494120088000BDCB
:4066400000102E4000B50120FFF71AFB01494020088000BD00102E40024A10820148603081817047A0102E4010B5044C208204488180028183815143018210BDA0102E4033
:40668000A0132E40034B1882024820388180028070470000A0102E404178027809020A4306490A80C2788378120213438B804279007912021043088170470000C0112E40AF
:4066C0004178027809020A4306490A81C2788378120213438B81427900791202104308827047000060102E40417802780902084B0A431A83C178827809020A439A834179F3
:406700000079090208430249203108807047000040102E404178027809020A4306498A80C2788378120213430B814279007912021043888170470000001F2E4010B50446EB
:40674000E820FFF70BFB20782246401CC3B20021E820FBF7A9FC10BD024A10820248818370470000A0102E40001A2E40024A10820148603081807047A0102E4010B5044692
:4067800088000521FAF7BEFB04490C8204498880200202497230A039088010BDA0102E40001A2E4003490882000202497330A03908807047A0102E4003490882000202494F
:4067C0007030A03908807047A0102E4003490882000202497130A03908807047A0102E40F8B505461C4617460E46084600F090F8054AB90021431582034AA03A80180180B5
:40680000024880194455F8BDA0102E405B0D0020034A118B8905890D8002084310837047A0102E4030B50E4C238A01251A46012804D0022804D000290BD00CE02A430AE08B
:40684000002908D12A4322825008400020821A4601E05A0852009A4200D0228230BD0000001A2E40054A1082044A6032908B4023984389010143918370470000A0102E4040
:40688000044A118A0223002801D0194300E0994311827047001A2E4000B5064A1082054860300181002901D0012000E00020FFF7E7FF00BDA0102E40024A801802880A4364
:4068C0000280704700102E4070B5084BC5182C880023080003D104E040085B1C9BB2C607FAD08C439A4022432A8070BD00102E40024A1018405C8007800F70475B0D00208A
:40690000024908820148803080897047A0102E408000FF3041307047044B02461B8AFF208B4202D902484018805C704750160020560D002002490882014880300089704785
:40694000A0102E40174902460B680020002B08D10A605207520F012A04D0022A10D0086012207047112292018A80CA80032252020A810122D2024A8140228A8105220DE0D9
:40698000092252028A80CA80012252030A810322D2024A81012252028A810422CA810A8270470000501600200A4600B501461046FFF7B2FF00BD38B50C4605460021684622
:4069C00000910AF0CBF9002804D1009928464C7000F018FC38BD10B5044680780021FFF73BFE01212046FFF7D7F810BD436E002B0CD00B60014660318B781370826E426605
:406A0000CA788A700021816608467047FF20704710B50346446E6033002C04D0846E002C04D0FF2010BD41669A7001E08166DA70002010BD0021416681667047406E00281A
:406A400001D000207047FF20704770B50446C0790D46810610D5DF210840E07100F0F4FE0570218941804034218A8180618AC180A18A018101F04EFC70BD000010B5044666
:406A8000FEF7F6FD01280AD1A1789020054A484380186030007FFDF735F8012801D000F015FB10BD64150020F8B50E460446FCF76BFE01282BD02079042801D0072825D199
:406AC000F079B77900020743A0783946FFF7EEFA25464035012820D03A46711C204600F09EFA02212046FDF77AFDA07DC107C90F0220FFF797FE688A002807D0E87E00286B
:406B000004D1032109020820FFF7A0F8F8BD01222421204600F02EFBF8BD282028732046FEF7C2F8F8BD70B50D460646FDF7CAFC002852D120213046FDF791F93446687845
:406B400040346073E87820220002E081A9780843E0816879010228790843218A814203D0F1791143F1712082E8790102A8790843618A814203D0F1791143F1716082687AF4
:406B80000102287A0843A18AE180814203D0F1791143F171A082A08A218A8000FAF7B2F9401E618A80B2814200D9608201213046FDF718FDE87AA97A000201430022304693
:406BC00000F048FB608A002807D0E07E002804D1032109020820FFF739F870BDF8B50C4605460027FCF7D0FD012847D0284E307BC00709D02846403000900078002806D05D
:406C0000102803D01F212CE01A212AE001272846FEF754F9002823D02E4680360822611C7068FAF79AFA7068617A20300172A17A417270682146183008220B31FAF78DFAEE
:406C400021462846042213313430FAF786FA39462846FDF7DDFE002810D1002F0FD012E007210322284600F085FA728B08212846FDF7EAF811212846FDF7B7FCF8BD062184
:406C80002846FDF7B5FC009801210176F8BD00001815002010B5FDF7FBFE10BDF8B504460020009020790D46032803D0042801D0072825D12046FCF767FD012821D06846D7
:406CC0000AF04CF800281BD111486978007B009E0840F12108402075F9F740FCC0B2022803D0207D4006400E2075607E0821084360763146204600F0C1F92046FDF7BBFC97
:406D0000F8BD08222421204600F034FAF8BD00001815002070470000F3B581B004460298FDF770FF06462046FEF771FC00282FD0162E04D32046029900F003F928E025461C
:406D40004035287800270300FAF716FC0E1B1B1B08081B1B1B0808080808081B0298194A01780020135C8B4201D1012702E0401C0728F7D3E87E002801D1072901D0002F33
:406D80000AD01049B00008310A5820460299904702980AF033F8FEBDA078FFF70DFD002301223D212046FDF7B1FD3D2028732046FFF711FE02980AF021F82046FDF7C5FF11
:406DC000FEBD00009030010070B50D460021002801D0002400E00C4C002C14D020464030C177807F032802D12046FEF7CFFD2046FFF744FE162D04D20449A8000958204674
:406E00008847FEF797FC70BD841500201C31010010B5014640310C4609780E2903D1FDF77BFE0120207610BD10B54021095C0F2901D1FDF794FE10BD4021095C0F2902D1C2
:406E4000002120304177704738B5044600220E4800920D46007BF1210840C0060ED52046FEF70CFC012809D0684609F077FF002803D12046009900F067F938BD2946204689
:406E800000F05FF838BD00001815002010B51021FCF7E5FF10BD10B54022125C002A02D04978FDF785FD10BD10B5FDF760FE10BD012120304177704710B54021095C0C2995
:406EC00001D1FDF769FE10BD10B54021095C0D2901D1FDF75DFE10BD70B5044600790D46052803D0062801D0082802D12046FDF771FD68784C21085509212046FDF778FB43
:406F00002046FFF768FD2046FCF73EFC0128A07805D0FFF751FC2046FEF724FE70BDFFF755FCF8E710B50446FF21FCF798FF16214C200155A078FFF73FFC2046FEF712FE6E
:406F400010BD70B50C460546FEF792FB002802D02078687570BD21782846FFF72CFD70BD70B5054648780C46032802D12846FDF73CFD6078122803D110212846FCF76FFF10
:406F800003482146006842682846904770BD0000900D0020704738B5044600200D46009004212046FCF75BFF68782076E8780002A081A9780843A08168790002E0812979A9
:406FC0000843E081607E04210843607680070CD4684609F0C3FE00281ED12046009900F01FF9607E022108436076E079410613D5BF210840E07100F027FC0021009001707C
:4070000021894180A1898180217E4170E189C18001F08AFAFEF78EFB38BD7047704770B50446C07815460A4600280AD00020E070C1B2A078FFF76CF8A0782946FFF722F928
:4070400070BD0120F3E770B50546042008700C468420415908222031601CFAF77EF829462046042238310930FAF777F80D2229462046FEF70BFD002070BD000070B5054633
:4070800009200C46087008220021601CFAF76EF8287D607006480922407BA0700020E070207129462046FEF7F1FC002070BD0000181500200B4610B501460B201870012281
:4070C0001846FEF7E3FC002010BD0000FEB50024164F03E0002C01D0002500E03D462846FFF7ACFC00281BD15F20405D002817D16A4601A92846FFF779FC002810D10198AC
:4071000069460A7806782946FEF7C0FC022E07D1A8780121FFF7A6FB09212846FDF768FA641C2406240ED5D0FEBD00008415002010B50B46122119708178D9770146012237
:407140001846FEF7A3FC10BD10B50B46132119708178D97706490989C90603D1C18A40221143C182014601221846FEF78FFC10BD20112E4038B50546002000900C466846D0
:4071800009F0ECFD002801D0072038BD00980D210170447002222946FEF778FC002038BD0B4610B501460520187001221846FEF76DFC002010BD0B4610B5014606201870FB
:4071C00001221846FEF762FC002010BD38B5054600200090684609F0C1FD002801D01F2038BD009C022020704C20405D6070A878E0772846FFF7EFFB022229462046FEF77A
:4072000045FC38BD10B50B46072119708178D977014602221846FEF739FC002010BD000010B50B460A49044608880C221A704A795A709870000AD870C8881871000A58719A
